:020000040800F2
:1000000048040020010100082D1E0008291E0008D8
:100010002B1E00086D0200081F23000800000000CE
:10002000000000000000000000000000E51F0008C4
:10003000A302000800000000951E0008912000089F
:100040001B0100081B0100081B0100081B01000820
:100050001B0100081B0100081B0100081B01000810
:100060001B0100081B0100081B0100081B01000800
:100070001B0100081B0100081B0100081B010008F0
:100080001B0100081B0100081B0100081B010008E0
:100090001B0100081B0100081B0100081B010008D0
:1000A0001B0100081B0100081B0100081B010008C0
:1000B0001B0100081B0100081B0100081B010008B0
:1000C0001B0100081B0100081B0100081B010008A0
:1000D0001B0100081B0100081B0100081B01000890
:1000E000A50200081B0100081B010008DFF80CD066
:1000F00000F05CF80048004755280008480400203C
:100100000648804706480047FEE7FEE7FEE7FEE7B1
:10011000FEE7FEE7FEE7FEE7FEE7FEE795200008C4
:10012000ED00000840EA01039B0703D009E008C97D
:10013000121F08C0042AFAD203E011F8013B00F8AC
:10014000013B521EF9D270472DE9F05F05460020B1
:1001500092469B4688460646814640241BE0284638
:1001600041464746224600F042F853465A46C01AD6
:10017000914110D311461846224600F029F82D1A55
:1001800067EB01084F4622460120002100F020F8CD
:1001900017EB00094E41201EA4F10104DFDC4846A4
:1001A00031462A464346BDE8F09F0000064C074D05
:1001B00006E0E06840F0010394E807009847103437
:1001C000AC42F6D3FFF796FF20290008402900082B
:1001D000202A04DB203A00FA02F100207047914007
:1001E000C2F1200320FA03F3194390407047202AFC
:1001F00004DB203A21FA02F00021704721FA02F3D1
:10020000D040C2F1200291400843194670470029AE
:10021000816802D041F0010101E021F0010181601B
:100220007047000010B542680E4B0C791A400B68FD
:1002300042EA04221343436082680B4B1A40D1E91F
:10024000024323434C7942EA440213438360C26A67
:10025000097C22F47002491EC9B242EA0151C1620E
:1002600010BD0000FFFEF0FFFDF7F1FFFEE778B5DF
:1002700004464FF6FF7016460D46ADF8000014F820
:10028000010B694602F03CF86D1EF8D1BDF8000084
:10029000C043ADF800003070BDF80000000A707077
:1002A00078BD704710B54FF40064204600F014F894
:1002B000002807D00449012008702046BDE81040FE
:1002C00000F004B810BD00000000002001490860E3
:1002D0007047000014040140064A014600201268DD
:1002E000044B0A4014331B680B4202D0002A00D092
:1002F000012070470004014030B51A4A8379016833
:1003000053B313688B431360111D0B680468A34338
:100310000B60017911440B68046823430B60114B97
:10032000083319680468A14319601C1D2168056819
:10033000A94321604179102905D011440A68006859
:1003400002430A6030BD19680268114319602168D0
:1003500000680143216030BD0079104402688A437F
:10036000026030BD0004014000B591B002218DF85B
:1003700000100621ADF80210016801918088ADF8E7
:100380000800684600F070F811B000BD00B591B0EB
:100390000D228DF800208DF804000222ADF8022015
:1003A0008DF80510684600F05FF811B000BD10B57B
:1003B00092B003238DF8003006238DF80400ADF8C9
:1003C00002308DF805101068CDF80600684600F080
:1003D0004BF8040005D10B2001F0B4F9800600D4DD
:1003E000241F12B0204610BD2DE9F04192B00C46FA
:1003F00006461D4690466F464121102001F064FCE0
:100400000B21112001F060FC07208DF80000A01CDA
:10041000ADF802000A208DF80400012031468DF865
:1004200005006E462246B01DFFF77CFE384600F000
:10043000A5FB040008D1BDF80200311DC0F3C702BE
:100440002A704046FFF76EFE12B0E0B2BDE8F081C0
:1004500070B50C46054601F075F920EA04012846FE
:10046000BDE8704001F030BC2DE9F04105460021A7
:10047000084601F029FC1021022001F029FA7F2111
:10048000062001F021FC7F21072001F01DFC002443
:1004900006E028190179052001F016FC641CE4B27D
:1004A0006888A042F5D82978080626D510210820AA
:1004B00001F00AFC224E707808B1E02100E0E8214A
:1004C000092001F001FC1F4C0027384627702978CD
:1004D00001F0FAFB20780028FDD0277010210820B9
:1004E00001F0F2FB707808B1202100E028210920FA
:1004F00001F0EAFB4FF4FA6401E00020F8E706207F
:1005000001F020F9C00604D4641E2404240CF6D1A2
:1005100006E02CB1042001F015F9064600240AE09B
:100520006FF07D00BDE8F081052001F00BF929197D
:10053000641C0871E4B2B442F6D30020F2E7000074
:100540000400002000000020F0B52C4C4FF4807512
:1005500089B02946204601F065FC012002F048F9E7
:100560002946204601F05CFC052002F041F94620B6
:1005700000F0A7FB0A2002F03BF906A9684600F04C
:100580007FFF0546014608236A461DA002F08CF94C
:10059000002D30D102A9684600F078FE05460146DC
:1005A000102302AA18A002F07FF9002D23D16514B0
:1005B000174EAF0000F02EF80A2002F019F900F0F3
:1005C0002DF82946304601F02DFC3946204601F031
:1005D00027FC0A2002F00CF906A9684600F050FF3B
:1005E000002808D12946304601F01AFC3946204639
:1005F00001F018FCDEE709B0F0BD00000008014082
:1006000041545146000000005245414400000000A2
:100610000010014008212820FFF71ABF08212820D8
:1006200001F056B9F0B5334C4FF4807589B02946C6
:10063000204601F0F7FB012002F0DAF829462046B7
:1006400001F0EEFB052002F0D3F8562000F039FB54
:100650000A2002F0CDF8694606A800F0D9FC05464C
:10066000014608236A4624A002F01EF9002D3FD15E
:10067000684601F0D1F80546002301461A4621A03C
:1006800002F012F9002D33D107AB02AA052168460A
:1006900001F076F8054601469DF81C3002AA1BA021
:1006A00002F002F9002D23D165141B4EAF00FFF7B5
:1006B000B1FF0A2002F09CF8FFF7B0FF2946304650
:1006C00001F0B0FB3946204601F0AAFB0A2002F0F7
:1006D0008FF8694606A800F09BFC002808D129463F
:1006E000304601F09DFB3946204601F09BFBDEE7DA
:1006F00009B0F0BD00080140496E76656E746F72F6
:100700007900000053656C65637400005265616494
:10071000426C6F636B000000001001402DE9F04F48
:100720008FB04FF48079ADF800901026DFF868B1F3
:100730008DF8036003258DF802506946584601F094
:10074000F5FA4946584601F06DFBF401ADF800405A
:1007500004208DF80300DFF844A18DF802506946AB
:10076000504601F0E3FA0B21012001F0CBFA0B9483
:1007700000248DF8304008208DF8310001278DF8D5
:1007800032700BA8FFF7B8FD28208DF834000F2039
:100790008DF835008DF836008DF837700DA801F012
:1007A00047FB4FF48058ADF800808DF803608DF85A
:1007B00002506946504601F0B9FA4146504601F0F0
:1007C00031FBADF800508DF803608DF8025069469A
:1007D000504601F0ABFA0121504601F021FB022105
:1007E000504601F01FFB4FF46040ADF800001826A2
:1007F0008DF803608DF802506946504601F096FA74
:10080000ADF804404FF48270ADF80600ADF80C402E
:100810007802ADF80E000720214DADF80840ADF884
:100820001060ADF81400ADF80A40ADF8124001A90F
:10083000284601F0BBFB0121284601F0ADFB8020DA
:10084000ADF800008DF803406946584601F06EFA95
:10085000A801CDE908048DF81C4006948DF81D40D0
:10086000104C8DF8287006A92046FFF7DBFC01210B
:100870002046FFF7CCFC4946584601F0D1FA1E202D
:1008800001F0B6FF7F2000F05DFF014606A001F0F9
:1008900047FD0FB0BDE8F08F00080140000C01409B
:1008A000003800400024014076657273696F6E3A2B
:1008B0002025580A000000002DE9F0410646984620
:1008C00017460D46412000F0FCF90A2001F090FF88
:1008D000304600F08FFE044601460223324637A020
:1008E00001F0E2FF002C66D170780C2801D130783D
:1008F00078B1042038702946932000F07BF8044634
:10090000014604232A462FA001F0CEFF002C52D12D
:1009100006E00620387000F0CAFB04004CD14AE023
:1009200042462946932000F029FE04460146012351
:10093000424626A001F0B8FF002C3CD13078800957
:100940001AD008203870291D952000F053F804466D
:10095000014604232A1D1FA001F0A6FF5CBB4246EE
:10096000291D952000F00AFE044601460123424657
:100970001AA001F099FFF4B9307800061BD50C20BD
:10098000387005F108010D46972000F033F8044651
:10099000014604232A4613A001F086FF5CB94246B3
:1009A0002946972000F0EAFD04460146012342460D
:1009B0000EA001F079FF2046BDE8F081415451417D
:1009C00000000000554944310000000053454C31FF
:1009D00000000000554944320000000053454C32ED
:1009E00000000000554944330000000053454C33DB
:1009F000000000002DE9F04F95B000258B4682469F
:100A00002C4611951295CDF84CD001212C20FFF7E2
:100A10001FFD01212D20FFF71BFD08212E2001F0D5
:100A200053F9E94614F007060ED0012000EBD40775
:100A30003007020E8F210C2000F056FF3246F821BD
:100A40002E2000F051FF00E0E70807208DF800009D
:100A5000E00860F31F1620368DF804A08DF80560BD
:100A600000204E460DF1440805E018F80010321839
:100A7000401C9171C0B2B842F7D3BF1CADF80270F0
:100A8000139800F07BF808EBD4024746137810F176
:100A9000180F06D0002842D1B1460021BDF80260EF
:100AA00023E04FF0050C0021ACEBD40CB14608E07C
:100AB00009EB010601EBD4087679491C07F80860B8
:100AC000C9B28C45F4DC1178194311709DF80440CB
:100AD00011E0C1EBD60808EB090CC1F104089CF841
:100AE00003C0491C07F808C0C9B2B1EBD60FF0D358
:100AF00011781943117010F1180F93D000280ED1FE
:100B000000217A5C0BF801206A40491CC9B21546E5
:100B10000429F6D3795C914201D06FF07C0015B0C6
:100B2000BDE8F08F10B592B007228DF800200922A1
:100B3000ADF802200C461D2201468DF804200968FC
:100B4000CDF8051000218DF8091008228DF80A2033
:100B5000012268468DF80B208DF80C1000F00EF87D
:100B6000002805D1BDF80210082903D06FF00A0053
:100B700012B010BD9DF804102170F9E72DE9F04185
:100B8000054600216FF07D07084601F09DF8102111
:100B9000022000F09DFE7F21062001F095F87F21C4
:100BA000072001F091F8002406E0281901790520BA
:100BB00001F08AF8641CA4B26888A042F5D8182114
:100BC000082001F081F84221092001F07DF8297800
:100BD000002001F079F8072000F0B4FD0646400639
:100BE000F9D52878072813D15421082001F06CF892
:100BF0004221092001F068F84FF4FA54072000F070
:100C0000A1FD0646400603D4641E2404240CF5D13D
:100C10000021082001F058F80021092001F054F8C3
:100C20000A2000F08FFD4CB1B1074FF0FF3645D4DC
:100C3000F8B1410705D56FF017063FE06FF01D06CC
:100C40003CE0C00713D06FF01406042000F07AFDDA
:100C50000746002406E0052000F074FD2919641CF5
:100C60000871A4B2BC42F6D3F800688026E03E4684
:100C700024E028780026072820D1042000F062FD17
:100C800007460C2000F05EFD10F0070003D0F900CD
:100C90000839084400E0F800688027B1FA2F00D92D
:100CA000FA27002408E00127FBE7052000F04AFDB1
:100CB0002919641C0871A4B2BC42F6D33046BDE8C1
:100CC000F08110B5044698210F2000F0FDFF92211D
:100CD000142000F0F9FF2021192000F0F5FF032176
:100CE0001A2000F0F1FFFF211B2000F0EDFF002192
:100CF0001E2000F0E9FF412C06D0422C4BD0462CA0
:100D00007CD0562C7BD046E11021032000F0DCFF84
:100D100080210C2000F0D8FF8021282000F0D4FF93
:100D2000C021292000F0D0FF09212A2000F0CCFFAB
:100D300005212B2000F0C8FF0021342000F0C4FF63
:100D400000210846FFF722FB0021082000F0BCFF2D
:100D50000021092000F0B8FFB021022000F0B4FF0C
:100D600020212F2000F0B0FF0021302000F0ACFF48
:100D7000CF21332000F0A8FF0421352000F0A4FF8C
:100D80005521372000F0A0FF1221382000F09CFFF1
:100D90000A213920F1E01021032000F095FF802185
:100DA0000C2000F091FF8F21282000F08DFF0C21F6
:100DB000292000F089FF01212A2000F085FF05216C
:100DC0002B2000F081FF0021342000F07DFF042162
:100DD0000846FFF7DBFA0021082000F075FF00212C
:100DE000092000F071FFB021022000F06DFF0A2100
:100DF0002F2000F069FF0021302001E01DE072E0AB
:100E000000F062FF0121312000F05EFF0521332058
:100E100000F05AFFB221342000F056FF3421352073
:100E200000F052FF9F21372000F04EFF12213820A2
:100E300000F04AFF0E21392049E01021032000F084
:100E400043FF80210C2000F03FFF8821282000F084
:100E50003BFF0421292000F037FF01212A2000F068
:100E600033FF05212B2000F02FFF0021342000F05C
:100E70002BFF08210846FFF789FA0021082000F01F
:100E800023FF0021092000F01FFFB021022000F005
:100E90001BFF00212F2000F017FF0321302000F05E
:100EA00013FF0121332000F00FFF0521352000F052
:100EB0000BFF5C21372000F007FF1221382000F0E3
:100EC00003FF0F21392000F0FFFE8621362000F0BD
:100ED000FBFE8721282000F0F7FE00210B2000F008
:100EE000F3FE8F2154E01021032000F0EDFE80215D
:100EF0000C2000F0E9FE8921282000F0E5FE042105
:100F0000292000F0E1FE09212A2000F0DDFE0A215F
:100F10002B2000F0D9FE0021342000F0D5FE0A215C
:100F20000846FFF733FA0021082000F0CDFE00212B
:100F3000092000F0C9FEB021022000F0C5FE00210A
:100F40002F2000F0C1FE0021302000F0BDFE0F2157
:100F5000332000F0B9FE0221352000F0B5FE7421E7
:100F6000372000F0B1FE1221382000F0ADFE07213D
:100F7000392000F0A9FE9C21362000F0A5FE812139
:100F8000282000F0A1FE00210B2000F09DFE892109
:100F9000282000F099FEC021662000F095FE032174
:100FA0006C2000F091FE01216D2000F08DFE0921E2
:100FB000472000F089FE002010BD10B592B0044615
:100FC00007208DF800000520ADF8020000208DF804
:100FD000040036228DF805208DF806008DF80700F4
:100FE00008208DF808006846FFF7C8FD002805D1E5
:100FF000BDF80210502903D06FF00A0012B010BDE6
:101000000199216002996160BDF80C102181F5E71A
:1010100070B592B00C4606466D467B212C2000F040
:1010200053FE7B212D2000F04FFE08212E2000F0E2
:101030004BFE8821312000F047FEA921322000F02C
:1010400043FE0021102000F03FFE8021112000F01F
:101050003BFE0321152000F037FE2221162000F070
:1010600033FE07208DF800000320ADF80200262093
:101070008DF8040001208DF8050000208DF8060091
:101080002846FFF77BFD002805D1BDF80210502946
:1010900003D06FF07B0012B070BD9DF80510317069
:1010A000DDF806102160DDF80A106160F3E708B58D
:1010B000684600F03DFA002802D1684600F0C0F80A
:1010C00008BD2DE9F04F93B08A4607461E4691466B
:1010D000CDF848D04F21332000F0F6FD0F212E200F
:1010E00000F0F2FD00244FF001084FF0060BAAF1CA
:1010F000010512E08DF800B0ADF80280385D8DF882
:1011000004001298FFF73AFD00283AD11CB90821D3
:101110002E2000F0D9FD641CE4B2AC42EADB0720CB
:101120008DF8000007EB0A00ADF8028010F8010C02
:101130008DF804001298FFF721FD040020D1BDF8BE
:101140000200C0F3C7023270D2B1484601A9FEF7CF
:10115000E9FF317811AA4846891EFFF788F83078F0
:10116000A9F102019DF84420415C8A4206D1A9F10F
:1011700001019DF84520405C824201D06FF00104DE
:10118000204613B0BDE8F08F70B592B00D4606460C
:101190006C460122FE212C2000F0A6FB0022FE213D
:1011A0002D2000F0A1FB07208DF800000220ADF8F3
:1011B000020030208DF804008DF805602046FFF70E
:1011C000DDFC04000BD1BDF80200902802D06FF0C6
:1011D0000A0404E01022284601A9FEF7A3FF12B07A
:1011E000204670BD70B592B00D4606466C46012291
:1011F000FE212C2000F078FB0122FE212D2000F0A2
:1012000073FB07208DF800000220ADF802003020AB
:101210008DF804008DF805602046FFF7AFFC040050
:101220000BD1BDF80200802802D06FF00A0404E060
:101230001022284601A9FEF775FF12B0204670BDA6
:1012400010B50F4986B00EC98DE80E000068CDF8C4
:10125000030068460721C21DFFF709F805AB03AA82
:1012600009216846FFF72DFF044601469DF814301A
:1012700003AA04A001F018FB06B0204610BD000030
:1012800008290008526561640000000070B592B042
:101290000D4604466E464121102000F015FD0B213D
:1012A000112000F011FD07208DF800001020ADF88E
:1012B00002008DF8040006208DF805002068CDF8A6
:1012C00006006068CDF80A0001208DF80E000B21A1
:1012D0008DF80F1000218DF810108DF8110080216D
:1012E0008DF812108DF813003046FFF747FC04000C
:1012F00005D1BDF80200E82804D06FF07B0412B0DD
:10130000204670BD102228460DF11101FEF70AFF9C
:10131000F5E730B591B004466D4618212C2000F059
:10132000D3FC18212D2000F0CFFCCF21332000F07A
:10133000CBFC00210B2000F0C7FCC021312000F0C5
:10134000C3FC0B21322000F0BFFC0821102000F06C
:10135000BBFC9421112000F0B7FC0021152000F007
:10136000B3FC4021162000F0AFFC0821062000F05D
:10137000ABFC9021362000F0A7FC0F212E2000F0BE
:10138000A3FC07208DF800000120ADF80200262004
:101390008DF804002846FFF7F1FB002805D1BDF8C1
:1013A0000210102903D06FF07B0011B030BD9DF802
:1013B000041021709DF805106170F6E72DE9F041E9
:1013C00092B00E4680466C467B212C2000F07CFCBF
:1013D0007B212D2000F078FC08212E2000F074FCE9
:1013E000C121312000F070FC0B21322000F06CFC98
:1013F0000821102000F068FC9421112000F064FC0A
:101400000021152000F060FC3021162000F05CFC6B
:101410000821062000F058FC9021362000F054FCF2
:1014200007208DF800000320ADF8020005208DF89C
:10143000040000208DF80500104F8DF806004FF4D1
:1014400080652946384600F0EDFC2046FFF796FB04
:1014500004462946384600F0E3FC14B114F1150F98
:1014600008D1BDF8020001A9C0F3C702327040469E
:10147000FEF758FE12B02046BDE8F081000C014096
:1014800070B592B00D4604466E4609212C2000F03E
:101490001BFC09212D2000F017FC08212E2000F054
:1014A00013FCC021312000F00FFC0021322000F09D
:1014B0000BFC0021102000F007FC8021112000F01F
:1014C00003FC0321152000F0FFFB2221162000F071
:1014D000FBFB07208DF800000620ADF802008DF818
:1014E000040000208DF80500FF218DF808008DF81C
:1014F00006108DF809008DF807103046FFF73EFB07
:10150000002805D1BDF80210902903D06FF07B00B0
:1015100012B070BDDDF806102160DDF80A106160C0
:10152000DDF80E102960DDF812106960F0E70000A8
:1015300030B505460F4887B007C88DE807006846F4
:101540000721C21DFEF793FE05AB03AA09216846D9
:10155000FFF7B7FD044601469DF8143003AA06A024
:1015600001F0A2F914B9DDF80E00286007B020469A
:1015700030BD0000FC280008524944002DE9F0412C
:1015800092B090460D46074600246E460122FE2189
:101590002C2000F0A9F90122FE212D2000F0A4F951
:1015A00007208DF80000ADF8020070208DF804705F
:1015B0008DF8050000226946A85C8B18521C444037
:1015C000D2B29871042AF7D38DF80A403046FFF75B
:1015D000D5FA002805D1BDF80210082904D06FF013
:1015E0000A0012B0BDE8F0819DF8042088F80020C0
:1015F000F7E70000F0B591B005466C4618212C20A5
:1016000000F062FB18212D2000F05EFBCF2133207B
:1016100000F05AFB00210B2000F056FBC0213120C6
:1016200000F052FB0B21322000F04EFB082110206D
:1016300000F04AFB9421112000F046FB0021152008
:1016400000F042FB4021162000F03EFB082106205E
:1016500000F03AFB9021362000F036FB0F212E20BF
:1016600000F032FB07208DF800000120ADF80200E9
:101670005220114F8DF804004FF4806631463846F1
:1016800000F0D0FB2046FFF779FA04463146384691
:1016900000F0C6FB2CB9BDF80200102804D06FF092
:1016A0007B0411B02046F0BD9DF8040028709DF821
:1016B00005006870F5E70000000C014010B592B01D
:1016C00007228DF800200322ADF80220D1220C461B
:1016D0008DF80420014611228DF8052068468DF80A
:1016E0000610FFF74BFA48B9BDF80210082902D0DE
:1016F0006FF00A0002E09DF80410217012B0C0B231
:1017000010BD70B592B00E4607218DF80010022171
:10171000ADF80210E0218DF804100546512168460D
:101720008DF80510FFF72AFA040008D1BDF8020071
:1017300001A9C0F3C70232702846FEF7F3FC12B0CD
:10174000E0B270BD70B50D4E04464FF48055294689
:10175000304600F065FB012000EB4400C0B200F011
:101760004BF8002000F048F804462946304600F0C7
:1017700059FB142001F052F8204670BD000C0140C6
:10178000F0B591B00F461D4616466C462421102038
:1017900000F09AFAEB21112000F096FA00211520B2
:1017A00000F092FA0021162000F08EFA07208DF842
:1017B00000000320ADF8020012208DF80400202064
:1017C0008DF805008DF806702046FFF7D7F9040064
:1017D0000FD1BDF8020050B1FF2101EBD000C2B221
:1017E0002A7030460DF10501FEF79CFC01E06FF018
:1017F0007B0411B02046F0BD06490A889207FCD54B
:10180000044A121D10800888C007FCD01088C0B29E
:10181000704700000838004030B591B004466D466E
:101820002421102000F050FAEB21112000F04CFA96
:101830000021152000F048FA0021162000F044FA9B
:1018400007208DF800000A20ADF8020022208DF854
:10185000040025208DF805002068CDF8060060689A
:10186000CDF80A002846FFF789F9002808D1BDF80D
:10187000021019B19DF80410002901D06FF07B000F
:1018800011B030BD10B50C4628B1012805D0022892
:1018900010D0032810D0202100E010212F2000F0CC
:1018A00013FA2CB1012C09D0022C09D0032C09D039
:1018B000042108E00721F1E70221EFE7052102E01A
:1018C000062100E00721BDE81040352000F0FCB9FA
:1018D00070B50C460546FFF735FF40EA040128467F
:1018E000BDE8704000F0F0B970B514460D460646EC
:1018F000FFF728FF284040EA04013046BDE8704069
:1019000000F0E2B9F0B58DB060208DF8300074A021
:10191000754CD0E90010CDE90A104FF480752946C6
:10192000204600F07FFA012000F062FF29462046A1
:1019300000F076FA052000F05BFF08AB07AA04A9C7
:1019400009A8FEF7B9FF00280AD19DF81C10062946
:101950005BD09DF82000420704D564A000F0E0FCB5
:101960000DB0F0BD820651D507A96846FFF7C9FE44
:1019700045B29DF81C306A46294661A000F094FFEC
:10198000002DEDD19DF80100C00604D59DF8021090
:10199000442088430CD007AB04AA05210AA8FEF70F
:1019A00023FD45B29DF81C3004AA294656A06EE0DE
:1019B00008A90020FFF782FE45B2012308AA2946A4
:1019C00053A000F071FF002DCAD100210846FEF798
:1019D000DDFC00210846FFF755FF07AB04AA0121F3
:1019E0000CA8FEF701FD45B29DF81C3004AA29465B
:1019F00048A000F059FF002DB2D100210846FEF7A3
:101A0000C5FC00210846FFF73DFF44E0042909D04A
:101A100069460320FFF7E6FB0546014610236A46A8
:101A20003EA034E0082802D0182806D00CE09DF82B
:101A30002400042808D13CA004E09DF824000228DA
:101A400002D140A000F06CFC4548FEF78DFC054635
:101A5000002301461A4643A000F026FF002D90D136
:101A600004AA00216020FEF7A2FC054600230146DF
:101A70001A463EA000F018FF002DA5D169460120AE
:101A8000FFF782FB0546014610236A4639A000F0A5
:101A90000BFF002D98D14FF40055384EAF00FEF7E4
:101AA000B9FD0A2000F0A4FEFEF7B8FD2946304635
:101AB00000F0B8F93946204600F0B2F90A2000F0EB
:101AC00097FE09A8FFF725FC002895D12946304646
:101AD00000F0A6F93946204600F0A4F9DFE700003F
:101AE00000840000080000000008014075696420BF
:101AF0006E6F7420636F6D706C657465000000001C
:101B0000526174730000000072616E646F6D0000BA
:101B10005070730076657231000000004D66756C80
:101B200052656164000000006D6966617265205352
:101B30003530206861732064657465637465642161
:101B40000A0000006D6966617265205337302068B5
:101B50006173206465746563746564210A00000024
:101B6000280000204C6F61644B65790041757468F2
:101B7000000000004D666352656164000010014082
:101B80002DE9FF41424C4FF480752946204600F074
:101B900049F9012000F02CFE2946204600F040F9CA
:101BA000052000F025FE4220FFF78BF80A2000F008
:101BB0001FFE03A96846FFF701FC0746014635A052
:101BC00000F0AEFB6E465FB9002505E0715D34A004
:101BD00000F0A6FB6D1CEDB29DF80C008542F5D31C
:101BE00031A000F09DFB002F50D19DF80C000C2877
:101BF00013D16946701CFEF795FF054601462BA0E0
:101C000000F08EFB25B99DF8001025A000F088FBA0
:101C100025A000F085FB002D38D16846FFF7CDF9EF
:101C20000546014624A000F07BFB3DB9715D1CA078
:101C300000F076FB6D1CEDB20A2DF7D31AA000F070
:101C40006FFB4FF400551F4EAF00FEF7E3FC0A2078
:101C500000F0CEFDFEF7E2FC2946304600F0E2F847
:101C60003946204600F0DCF80A2000F0C1FD03A947
:101C70006846FFF7A3FB002808D12946304600F04C
:101C8000CFF83946204600F0CDF8DEE7BDE8FF8109
:101C900000080140415451423A2025645F00000091
:101CA00020253032580000000A00000053454C4502
:101CB00043543A25645F00005549443A2025645F47
:101CC00000000000001001402DE9F0410C4D0E46CF
:101CD00007464FF480542146284600F0A1F87806C4
:101CE000000EFFF789FD3046FFF786FD21462846A6
:101CF00000F098F8BDE8F041142000F08FBD00001E
:101D0000000C014010B58A0721F003040649120FA8
:101D100021440F238C6893409C438C608B689040D7
:101D200003438B6010BD000000000140F0B5CC788B
:101D3000002204F00F03E40601D58C7823430C78CD
:101D40004FF00F0C14F0FF0F4FF0010E1BD0056881
:101D50000E880EFA02F42640A64210D196000CFA24
:101D600006F725EA070703FA06F5CE783D43282E45
:101D700002D0482E02D002E0446100E00461521C0F
:101D8000082AE5D305600A88FF2A1CD94468002286
:101D900002F108060EFA06F50E882E40AE420ED16C
:101DA00096000CFA06F7BC4303FA06F7CE783C43DC
:101DB000282E00D14561CE78482E00D10561521CF5
:101DC000082AE5D34460F0BDF0B5144C002801DAD0
:101DD000E36900E06368450D2E0185B2C0F3015749
:101DE000B540C0F30342032F05D0C6020AD503262F
:101DF0009640B34307E023F07062636823F070639A
:101E0000636002E0AB4343F0706201B12A430028F3
:101E100001DAE261F0BD6260F0BD00000000014047
:101E20004161704701617047FEE7FEE770470000BF
:101E300030B50F23C27801780125F2B1144A126837
:101E400001F1E02102F4E062C2F5E062120AC2F19F
:101E50000404D3404278A24084781C4014432201F9
:101E600081F80024007800F01F018D4040098000B7
:101E700000F1E020C0F8005130BD01F01F008540A6
:101E80004809800000F1E020C0F8805130BD00001A
:101E90000CED00E070470000044A0029D16901D030
:101EA000014300E08143D16170470000001002400F
:101EB000044A0029916901D0014300E08143916106
:101EC000704700000010024030B5204A5168204B96
:101ED00011F00C0103D0042901D0082901D00360BE
:101EE00012E05168536801F470114FF0020413F4CA
:101EF000803F04EB914102D053689B0301D5154B01
:101F000000E0134B5943016051680F2303EA11119C
:101F1000114B5C5C0168E14041605468072505EAAB
:101F200014241C5D21FA04F48460546805EAD42466
:101F30001B5DD940C1605268032303EA9232064B0D
:101F40001B1F9A5CB1FBF2F1016130BD0010024031
:101F500000127A0000093D0032000020034A516857
:101F600021F0F00101435160704700000010024071
:101F7000034A516821F4E061014351607047000059
:101F800000100240034A516821F4605141EAC00048
:101F900050607047001002400029018802D041F0D3
:101FA000400101E021F040010180704730B5028816
:101FB0004C8802F441530A88CD8822438C882C43F4
:101FC00022430C8922434C8922438C892243CC89A9
:101FD00022431A430280828B22F400628283098AA0
:101FE000018230BD704700000CB5002226480092E7
:101FF0000192016841F4803101604FF4A0630168EF
:1020000001F4003101910099491C0091019911B925
:1020100000999942F3D10168890333D501210191D7
:102020001A490A6842F010020A600A6822F00302A4
:102030000A600A6842F002020A6041684160416831
:102040004160416841F480614160416821F47C1144
:102050004160416841F4E8114160016841F08071DC
:10206000016001688901FCD5416821F003014160EC
:10207000416841F0020141604168C1F381010229D8
:10208000FAD10CBD01920CBD0010024000200240AC
:10209000704700000F4810B5016841F00101016070
:1020A00041680D4A1140416001680C4A11400160CD
:1020B000016821F480210160416821F4FE01416042
:1020C0004FF41F018160FFF78FFF05494FF000605B
:1020D000086010BD001002400000FFF8FFFFF6FE90
:1020E00008ED00E02DE9F04186B00020FFF736FF53
:1020F0004FF480663046FFF73BFF0020FFF742FFBA
:10210000012144F21D20FFF7D3FE01218803FFF7D0
:10211000C3FE01213E48FFF757FE18208DF803004B
:102120007010ADF80000DFF8EC8003248DF8024059
:1021300069464046FFF7FAFD04208DF80300ADF82C
:10214000006069464046FFF7F1FD00224FF4E130A0
:102150000190ADF80C200C202F4DADF80820ADF803
:102160000E00ADF80A20ADF8102001A9284600F0B5
:102170006DF80121284600F058F84021284600F06B
:1021800051F810258DF803504FF48760ADF800002A
:10219000224F8DF8024069463846FFF7C7FD3146A9
:1021A0003846FFF73DFE31463846FFF73BFE10212B
:1021B0003846FFF735FE08213846FFF731FE6E023C
:1021C000ADF80060164F8DF803508DF80240694657
:1021D0003846FFF7ABFD31463846FFF721FEEE02E9
:1021E00031464046FFF71EFEADF800608DF8035003
:1021F0008DF8024069464046FFF798FD314640465B
:10220000FFF70EFE482000F0DDFA06B0BDE8F081D1
:10221000000230000008014000380140000C01407D
:1022200000100140C943018070470029818902D014
:1022300041F4005101E021F40051818170470246D0
:10224000002012880A4200D00120704730B50446B1
:10225000008A85B00D464CF6FF710840E9880143BD
:102260002182A0894EF6F3110840A9882A891143DA
:102270006A8902431143A181A08A4FF6FF410840B9
:10228000A9890143A1826846FFF71EFE19488442CE
:1022900001D1039800E00298A189090400EBC00174
:1022A00001EB0010296801D5490000E08900B0FB6E
:1022B000F1F06422B0FBF2F109010B096FF018058F
:1022C0006B4300EB8300A3891D044FF0320306D556
:1022D00003EBC000B0FBF2F000F0070005E003EBF9
:1022E0000010B0FBF2F000F00F000843208105B0B1
:1022F00030BD000000380140C1F308018180704703
:102300000A881346424082EA0210C0B21A0A82EAE0
:10231000002282EAC00282EA101008807047FEE7BD
:102320000FB4054B10B503A9044A029800F018F841
:1023300010BC5DF814FB00003128000844000020A8
:1023400002E008C8121F08C1002AFAD1704770477E
:10235000002001E001C1121F002AFBD170470000DC
:102360002DE9FF4F8DB00F460546002606E02528D3
:102370000BD0DDE90F1290476D1C761C28780028E1
:10238000F5D111B03046BDE8F08F0024A246A14639
:102390000122EC4900E0044315F8013F203B02FA1A
:1023A00003F00842F7D128782A2810D06FF02F02C6
:1023B0002878A0F13001092914D80AEB8A0102EB30
:1023C000410144F0020400EB010A6D1CF0E701CF6B
:1023D0005FEA000A03D544F40054CAF1000A44F04D
:1023E00002046D1C28782E2817D115F8010F44F02F
:1023F00004042A280ED06FF02F022878A0F13001B3
:1024000009290AD809EB890102EB410100EB010916
:102410006D1CF2E757F8049B6D1C28786C280FD0D0
:1024200006DC4C2817D068280DD06A2814D104E0A7
:10243000742810D07A280FD10DE044F400140AE07B
:1024400044F4801401E044F440146978814202D1DC
:1024500004F580146D1C6D1C2A786E2A1FD00CDCCC
:10246000632A31D004DC002A8BD0582A11D1A3E092
:10247000642A68D0692A0CD165E0732A2ED004DC66
:102480006F2A73D0702A04D19BE0752A6FD0782A06
:102490006ED01046DDE90F129047761C50E1C4F370
:1024A0000250022806D0032809D0042801CF09D001
:1024B000066045E101CFF117C0E9006140E101CFBD
:1024C00006803DE106703BE117F8040B8DF8000033
:1024D00000208DF80100EB46012003E057F804BB13
:1024E0004FF0FF3061074FF0000102D40DE008F11A
:1024F0000101884649450FDA8045F8DB1BF80810D2
:102500000029F4D108E008F1010188468142FADB94
:102510001BF808100029F6D1DDE90F23AAEB08000B
:102520008146214600F036F9304400EB080604E00D
:10253000DDE90F121BF8010B9047B8F10108F7D243
:1025400021464846F7E00A21C4F302534FF0000B3E
:102550000891022B04D001CFC117032B09D00AE048
:10256000FF1D27F00707F7E8020108E032E01FE04F
:1025700020E000B2C117042B01D140B2C117031EE5
:1025800071F1000307DA4FF0000CD0EB0C006CEB9C
:1025900001012D2302E0230504D52B238DF82430DF
:1025A000012303E0E30701D02023F7E7984658E032
:1025B0000A2110E010210EE010204FF0000B0890CF
:1025C0000CE010214FF0000B44F004044FF0080918
:1025D000089103E008214FF0000B0891C4F3025367
:1025E000022B04D001CF0021032B06D006E0FF1DF3
:1025F00027F00707F7E8020103E080B2042B00D1BF
:10260000C0B24FF0000823072BD5702A07D0DDF8A1
:1026100020C08CF0100C5CEA0B0C05D00EE04023BF
:102620008DF82430012308E050EA010306D030235E
:102630008DF824308DF8252002239846DDF820C03F
:102640008CF0080C5CEA0B0C0BD150EA010301D1B1
:10265000630706D530238DF824304FF00108A9F127
:102660000109582A04D038A20B9208AA0A920BE05A
:102670003AA2F9E75B46089AFDF766FD0B9B9B5C67
:102680000A9A521E0A92137050EA0102F2D10A9875
:10269000ADEB000000F1200B600702D524F480347C
:1026A00001E04FF00109D94502DDA9EB0B0000E084
:1026B000002000EB0B0141440890AAEB010AE00363
:1026C00006D4DDE90F232146504600F063F80644A6
:1026D0004FF0000908E009A911F80900DDE90F121F
:1026E000904709F10109761CC145F4DBE0030CD5E4
:1026F000DDE90F232146504600F04CF8064404E083
:10270000DDE90F1230209047761C0899481E08908A
:102710000029F5DC08E00A980A990078491C0A911A
:10272000DDE90F129047761CBBF10001ABF1010B04
:10273000F1DC21465046DDE90F2300F019F806448C
:102740006D1C1BE609280100303132333435363731
:1027500038396162636465660000000030313233ED
:10276000343536373839414243444546000000008D
:102770002DE9F041044600251E461746880404D47E
:1027800005E039462020B0476D1C641EF9D5284667
:10279000BDE8F0812DE9F041044600251E46904633
:1027A000C80301D5302700E02027880404D505E0C0
:1027B00041463846B0476D1C641EF9D52846BDE831
:1027C000F08100004FF0E0210A6922F004020A6162
:1027D0000649C00800EB40020870C2EBC0104FF67B
:1027E000FF7202EAC0004880704700000400002029
:1027F0000949498848434FF0E0214861086940F0A1
:10280000010008610869C003FCD5086920F00100D7
:10281000086100208861704704000020002103E067
:1028200000BF00BF00BF491C8142F9D370470000C0
:1028300070B5074D0446C1B22846FFF75DFD402143
:102840002846FFF7FCFC0028F9D0204670BD0000A8
:1028500000380140FFF746FC1420FFF7C9FFFDF7E1
:102860005DFF0CA0FFF75CFD4FF400510C48FFF733
:10287000D9FA4FF400410B48FFF7D2FAFFF742F8BC
:10288000FFF77EF9FDF760FEFDF7CCFEC820FFF7ED
:10289000AFFFF3E77265736574212121210A0000FF
:1028A000001001400008014070B516460C460A466B
:1028B00001461D4608A0FFF733FD34B107E0315D46
:1028C00007A0FFF72DFD641CE4B2AC42F7D3BDE8CE
:1028D000704005A0FFF724BD25733A2025645F00F2
:1028E00020253032580000000A00000001000000DE
:1028F000000000000100000000000000780000005F
:1029000000000000000000000108000000000000BE
:1029100000000000010000000000000000000000B6
:102920004029000800000020480000004023000863
:1029300088290008480000200004000050230008F7
:102940000000000000000000000000000000000087
:102950000000000000000000000000000000000077
:102960000000000000000000FFFFFFFFFFFF020467
:102970000608000000000102030401020304060728
:0829800008090000000000003E
:04000005080000ED02
:00000001FF
