:020000040800F2
:100000002005002001010008C1170008BD170008E5
:10001000BF17000891020008C72400080000000074
:100020000000000000000000000000005521000852
:10003000C70200080000000029180008012200087B
:100040001B0100081B0100081B0100081B01000820
:100050001B0100081B0100081B0100081B01000810
:100060001B0100081B0100081B0100081B01000800
:100070001B0100081B0100081B0100081B010008F0
:100080001B0100081B0100081B0100081B010008E0
:100090001B0100081B0100081B0100081B010008D0
:1000A0001B0100081B0100081B0100081B010008C0
:1000B0001B0100081B0100081B0100081B010008B0
:1000C0001B0100081B0100081B0100081B010008A0
:1000D0001B010008092300081B0100081B01000880
:1000E000C90200081B0100081B010008DFF80CD042
:1000F00000F06EF800480047E929000820050020BC
:100100000648804706480047FEE7FEE7FEE7FEE7B1
:10011000FEE7FEE7FEE7FEE7FEE7FEE70522000852
:10012000ED00000840EA01039B0703D009E008C97D
:10013000121F08C0042AFAD203E011F8013B00F8AC
:10014000013B521EF9D27047D2B201E000F8012BF8
:10015000491EFBD270470022F6E710B513460A4647
:1001600004461946FFF7F0FF204610BD2DE9F05F69
:100170000546002092469B46884606468146402416
:100180001BE0284641464746224600F042F85346C7
:100190005A46C01A914110D311461846224600F023
:1001A00029F82D1A67EB01084F462246012000214D
:1001B00000F020F817EB00094E41201EA4F10104C5
:1001C000DFDC484631462A464346BDE8F09F000042
:1001D000064C074D06E0E06840F0010394E8070094
:1001E00098471034AC42F6D3FFF784FF682A000822
:1001F000882A0008202A04DB203A00FA02F10020B5
:1002000070479140C2F1200320FA03F31943904054
:100210007047202A04DB203A21FA02F000217047BF
:1002200021FA02F3D040C2F120029140084319465E
:1002300070470029816802D041F0010101E021F0FE
:10024000010181607047000010B542680E4B0C79C7
:100250001A400B6842EA04221343436082680B4B46
:100260001A40D1E9024323434C7942EA4402134342
:100270008360C26A097C22F47002491EC9B242EA54
:100280000151C16210BD0000FFFEF0FFFDF7F1FF5C
:10029000FEE778B504464FF6FF7016460D46ADF8FA
:1002A000000014F8010B694602F0FEF86D1EF8D14B
:1002B000BDF80000C043ADF800003070BDF800008C
:1002C000000A707078BD704710B54FF40064204686
:1002D00000F014F8002807D00449012008702046D7
:1002E000BDE8104000F004B810BD0000020000207E
:1002F000014908607047000014040140064A0146A5
:1003000000201268044B0A4014331B680B4202D0D1
:10031000002A00D0012070470004014030B51A4A7D
:100320008379016853B313688B431360111D0B6805
:100330000468A3430B60017911440B6804682343EC
:100340000B60114B083319680468A14319601C1D28
:1003500021680568A94321604179102905D011441D
:100360000A68006802430A6030BD196802681143D8
:100370001960216800680143216030BD0079104494
:1003800002688A43026030BD0004014000B591B0AC
:1003900002218DF800100621ADF8021001680191CC
:1003A0008088ADF80800684600F03CF811B000BD48
:1003B00000B591B00D228DF800208DF804000222C6
:1003C000ADF802208DF80510684600F02BF811B04A
:1003D00000BD10B592B003238DF8003006238DF8D0
:1003E0000400ADF802308DF805101068CDF8060055
:1003F000684600F017F8040005D10B2000F054FF08
:10040000800600D4241F12B0204610BD70B50C46E3
:10041000054600F049FF20EA04012846BDE8704087
:1004200001F0F0B82DE9F04105460021084601F041
:10043000E9F81021022000F065FF7F21062001F07D
:10044000E1F87F21072001F0DDF8002406E02819FB
:100450000179052001F0D6F8641CE4B26888A04256
:10046000F5D82978080626D51021082001F0CAF809
:10047000224E707808B1E02100E0E821092001F067
:10048000C1F81F4C002738462770297801F0BAF8C8
:1004900020780028FDD027701021082001F0B2F844
:1004A000707808B1202100E02821092001F0AAF885
:1004B0004FF4FA6401E00020F8E7062000F0F4FEB3
:1004C000C00604D4641E2404240CF6D106E02CB12A
:1004D000042000F0E9FE064600240AE06FF07D00EB
:1004E000BDE8F081052000F0DFFE2919641C0871C9
:1004F000E4B2B442F6D30020F2E70000040000208A
:10050000020000202DE9F04F01218FB0880301F097
:100510008DF9012140F20D2001F094F9012170487C
:1005200001F0F0F84FF4807AADF800A010268DF8B5
:10053000036003258DF8025069466A4801F094F87B
:100540005146684801F00CF9F401ADF80040042070
:100550008DF80300DFF890B18DF8025069465846D7
:1005600001F082F80B21012001F06AF80B940024BD
:100570008DF830404FF008098DF8319001278DF843
:1005800032700BA8FFF7CAFE28208DF83400022035
:100590008DF835008DF836008DF837700DA801F014
:1005A00011F94FF48058ADF800808DF803608DF894
:1005B00002506946584601F057F84146584601F046
:1005C000CFF84FF46040ADF800004FF018088DF8F8
:1005D00003808DF802506946584601F045F848F20C
:1005E0002200ADF800008DF803608DF802506946D6
:1005F0003C4801F039F8ADF800908DF803608DF8B3
:1006000002506946584601F02FF82021354801F084
:10061000A7F80221334801F0A1F8F102314801F0B6
:100620009DF80821584601F099F8ADF804404FF4C0
:100630008270ADF80600ADF80C407001ADF80E0008
:1006400007202A4DADF80840ADF81080ADF8140031
:10065000ADF80A40ADF8124001A9284601F05EFD50
:100660000121284601F050FD8020ADF800008DF8F2
:10067000034069461B4800F0F7FFA801CDE90804D4
:100680001B4D8DF81C4006948DF81D408DF8287088
:1006900006A92846FFF7D8FD01212846FFF7C9FD26
:1006A0005146104801F05AF81E2002F075F97F20DB
:1006B00000F0FAFD25208DF838008DF839408DF8CE
:1006C0003A408DF83B700EA801F07CF8012240F210
:1006D0002551084801F072FE0FB0BDE8F08F000010
:1006E0000002300000080140000C014000380040CA
:1006F00000240140003801402DE9F04105461F4625
:1007000014460E46412000F0B1F90A2002F044F9E7
:10071000284600F043FD00283FD168780C2801D11D
:100720002878A0B3042020703146932000F037F8D9
:10073000002832D13A463146932000F0F3FC0028DD
:100740002BD1297889090ED008202070311D9520E1
:1007500000F025F8002820D13A46311D952000F000
:10076000E1FC002819D12978090616D50C20207043
:1007700006F108010C46972000F011F800280CD172
:100780003A462146BDE8F041972000F0CBBC062058
:100790002070BDE8F04100F010BBBDE8F0812DE90C
:1007A000F04F95B000258B4682462C461195129548
:1007B000CDF84CD001212C20FFF728FE01212D205F
:1007C000FFF724FE08212E2000F01CFFE94614F05C
:1007D00007060ED0012000EBD4073007020E8F2150
:1007E0000C2000F09BFD3246F8212E2000F096FDF3
:1007F00000E0E70807208DF80000E00860F31F160E
:1008000020368DF804A08DF8056000204E460DF1CD
:10081000440805E018F800103218401C9171C0B26D
:10082000B842F7D3BF1CADF80270139800F07BF804
:1008300008EBD4024746137810F1180F06D00028B1
:1008400042D1B1460021BDF8026023E04FF0050C13
:100850000021ACEBD40CB14608E009EB010601EB3A
:10086000D4087679491C07F80860C9B28C45F4DCD5
:100870001178194311709DF8044011E0C1EBD608BE
:1008800008EB090CC1F104089CF803C0491C07F8E7
:1008900008C0C9B2B1EBD60FF0D31178194311706B
:1008A00010F1180F93D000280ED100217A5C0BF8BC
:1008B00001206A40491CC9B215460429F6D3795C67
:1008C000914201D06FF07C0015B0BDE8F08F10B5FB
:1008D00092B007228DF800200922ADF802200C46C4
:1008E0001D2201468DF804200968CDF8051000216D
:1008F0008DF8091008228DF80A20012268468DF82B
:100900000B208DF80C1000F00EF8002805D1BDF872
:100910000210082903D06FF00A0012B010BD9DF834
:1009200004102170F9E72DE9F041054600216FF030
:100930007D07084600F066FE1021022000F0E2FC70
:100940007F21062000F05EFE7F21072000F05AFE86
:10095000002406E028190179052000F053FE641CEC
:10096000A4B26888A042F5D81821082000F04AFEF9
:100970004221092000F046FE2978002000F042FEC6
:10098000072000F091FC06464006F9D52878072894
:1009900013D15421082000F035FE4221092000F037
:1009A00031FE4FF4FA54072000F07EFC0646400664
:1009B00003D4641E2404240CF5D10021082000F087
:1009C00021FE0021092000F01DFE0A2000F06CFC31
:1009D0004CB1B1074FF0FF3645D4F8B1410705D50A
:1009E0006FF017063FE06FF01D063CE0C00713D024
:1009F0006FF01406042000F057FC0746002406E0C0
:100A0000052000F051FC2919641C0871A4B2BC42F5
:100A1000F6D3F800688026E03E4624E028780026D9
:100A2000072820D1042000F03FFC07460C2000F0EE
:100A30003BFC10F0070003D0F9000839084400E03F
:100A4000F800688027B1FA2F00D9FA27002408E0BF
:100A50000127FBE7052000F027FC2919641C087119
:100A6000A4B2BC42F6D33046BDE8F08110B50446CE
:100A700098210F2000F0C6FD9221142000F0C2FD45
:100A80002021192000F0BEFD03211A2000F0BAFD3C
:100A9000FF211B2000F0B6FD00211E2000F0B2FD5A
:100AA000412C06D0422C4BD0462C7CD0562C7BD0EF
:100AB00046E11021032000F0A5FD80210C2000F06C
:100AC000A1FD8021282000F09DFDC021292000F0FB
:100AD00099FD09212A2000F095FD05212B2000F029
:100AE00091FD0021342000F08DFD00210846FFF724
:100AF0005FFC0021082000F085FD0021092000F0A6
:100B000081FDB021022000F07DFD20212F2000F08A
:100B100079FD0021302000F075FDCF21332000F059
:100B200071FD0421352000F06DFD5521372000F0C6
:100B300069FD1221382000F065FD0A213920F1E01D
:100B40001021032000F05EFD80210C2000F05AFDF2
:100B50008F21282000F056FD0C21292000F052FDA5
:100B600001212A2000F04EFD05212B2000F04AFD36
:100B70000021342000F046FD04210846FFF718FC50
:100B80000021082000F03EFD0021092000F03AFD80
:100B9000B021022000F036FD0A212F2000F032FDA6
:100BA0000021302001E01DE072E000F02BFD01216A
:100BB000312000F027FD0521332000F023FDB22174
:100BC000342000F01FFD3421352000F01BFD9F2153
:100BD000372000F017FD1221382000F013FD0E2100
:100BE000392049E01021032000F00CFD80210C2069
:100BF00000F008FD8821282000F004FD04212920B0
:100C000000F000FD01212A2000F0FCFC05212B2032
:100C100000F0F8FC0021342000F0F4FC0821084624
:100C2000FFF7C6FB0021082000F0ECFC00210920A2
:100C300000F0E8FCB021022000F0E4FC00212F20AD
:100C400000F0E0FC0321302000F0DCFC0121332027
:100C500000F0D8FC0521352000F0D4FC5C213720C1
:100C600000F0D0FC1221382000F0CCFC0F213920FC
:100C700000F0C8FC8621362000F0C4FC8721282023
:100C800000F0C0FC00210B2000F0BCFC8F2154E0E0
:100C90001021032000F0B6FC80210C2000F0B2FCF3
:100CA0008921282000F0AEFC0421292000F0AAFCB4
:100CB00009212A2000F0A6FC0A212B2000F0A2FC2A
:100CC0000021342000F09EFC0A210846FFF770FB4B
:100CD0000021082000F096FC0021092000F092FC81
:100CE000B021022000F08EFC00212F2000F08AFCB1
:100CF0000021302000F086FC0F21332000F082FC20
:100D00000221352000F07EFC7421372000F07AFCAF
:100D10001221382000F076FC0721392000F072FC07
:100D20009C21362000F06EFC8121282000F06AFC16
:100D300000210B2000F066FC8921282000F062FCD5
:100D4000C021662000F05EFC03216C2000F05AFCFC
:100D500001216D2000F056FC0921472000F052FCD3
:100D6000002010BD10B592B0044607208DF8000099
:100D70000520ADF8020000208DF8040036228DF821
:100D800005208DF806008DF8070008208DF8080072
:100D90006846FFF7C8FD002805D1BDF802105029AC
:100DA00003D06FF00A0012B010BD019921600299C2
:100DB0006160BDF80C102181F5E708B5684600F0C8
:100DC00095F9002802D1684600F016F908BD2DE912
:100DD000F04F93B08A4607461E469146CDF848D05C
:100DE0004F21332000F00EFC0F212E2000F00AFCD2
:100DF00000244FF001084FF0060BAAF1010512E0A4
:100E00008DF800B0ADF80280385D8DF804001298BE
:100E1000FFF789FD00283AD11CB908212E2000F0E7
:100E2000F1FB641CE4B2AC42EADB07208DF8000061
:100E300007EB0A00ADF8028010F8010C8DF80400F1
:100E40001298FFF770FD040020D1BDF80200C0F336
:100E5000C7023270D2B1484601A9FFF763F9317871
:100E600011AA4846891EFFF714FA3078A9F1020149
:100E70009DF84420415C8A4206D1A9F101019DF808
:100E80004520405C824201D06FF00104204613B03F
:100E9000BDE8F08F70B592B00D4606466C46012253
:100EA000FE212C2000F03AFA0022FE212D2000F035
:100EB00035FA07208DF800000220ADF8020030203E
:100EC0008DF804008DF805602046FFF72CFD040026
:100ED0000BD1BDF80200902802D06FF00A0404E0A4
:100EE0001022284601A9FFF71DF912B0204670BD57
:100EF000F0B591B00F4604466E460122FE212C202B
:100F000000F00CFA0022FE212D2000F007FA072540
:100F10008DF800500220ADF80200A0208DF80400EA
:100F20008DF805403046FFF7FEFC411C05D0BDF8AA
:100F30000200042803D06FF00A0011B0F0BD9DF844
:100F4000040010F00F008DF8040004D06FF00504C9
:100F50000A281BD102E06FF00900EEE710208DF89F
:100F60000050ADF802000246394601A8FFF7DAF852
:100F70003046FFF7D8FC411CDFD09DF8040010F08C
:100F80000F008DF8040003D00A2804D02046D4E7CF
:100F90006FF00E00D1E70020CFE770B592B00D469C
:100FA00006466C460122FE212C2000F0B7F90122F2
:100FB000FE212D2000F0B2F907208DF8000002205C
:100FC000ADF8020030208DF804008DF80560204651
:100FD000FFF7A9FC04000BD1BDF80200802802D065
:100FE0006FF00A0404E01022284601A9FFF79AF8DE
:100FF00012B0204670BD000000B50A4987B00EC986
:101000008DE80E000068CDF8030068460721C21D78
:10101000FFF73FF905AB03AA09216846FFF7D7FEA2
:1010200007B000BD382A00082DE9F04192B00E4605
:1010300080466C467B212C2000F0E4FA7B212D2099
:1010400000F0E0FA08212E2000F0DCFAC121312066
:1010500000F0D8FA0B21322000F0D4FA0821102039
:1010600000F0D0FA9421112000F0CCFA00211520D4
:1010700000F0C8FA3021162000F0C4FA082106203A
:1010800000F0C0FA9021362000F0BCFA07208DF85D
:1010900000000320ADF8020005208DF804000020B8
:1010A0008DF80500104F8DF806004FF48065294635
:1010B000384600F055FB2046FFF735FC044629462C
:1010C000384600F04BFB14B114F1150F08D1BDF8F0
:1010D000020001A9C0F3C70232704046FFF722F8B0
:1010E00012B02046BDE8F081000C014010B5044666
:1010F0000B4886B007C88DE8070068460721C21D67
:10110000FFF7C7F805AB03AA09216846FFF75FFEA2
:10111000002802D1DDF80E10216006B010BD0000DD
:101120002C2A00082DE9F04192B090460D46074662
:1011300000246E460122FE212C2000F0EFF801224F
:10114000FE212D2000F0EAF807208DF80000ADF810
:10115000020070208DF804708DF8050000226946A9
:10116000A85C8B18521C4440D2B29871042AF7D361
:101170008DF80A403046FFF7D6FB002805D1BDF8B0
:101180000210082904D06FF00A0012B0BDE8F08107
:101190009DF8042088F80020F7E70000F0B591B032
:1011A00005466C4618212C2000F02CFA18212D2021
:1011B00000F028FACF21332000F024FA00210B2080
:1011C00000F020FAC021312000F01CFA0B2132205F
:1011D00000F018FA0821102000F014FA94211120D0
:1011E00000F010FA0021152000F00CFA4021162022
:1011F00000F008FA0821062000F004FA90213620B9
:1012000000F000FA0F212E2000F0FCF907208DF8E5
:1012100000000120ADF802005220114F8DF80400AB
:101220004FF480663146384600F09AFA2046FFF7C0
:101230007AFB04463146384600F090FA2CB9BDF8E6
:101240000200102804D06FF07B0411B02046F0BDDE
:101250009DF8040028709DF805006870F5E700000F
:10126000000C014070B592B00E4607218DF80010B9
:101270000221ADF80210E0218DF80410054651213D
:1012800068468DF80510FFF74EFB040008D1BDF845
:10129000020001A9C0F3C70232702846FEF742FFE0
:1012A00012B0E0B270BD000070B50D4E04464FF4B0
:1012B00080552946304600F051FA012000EB4400E9
:1012C000C0B200F00FF8002000F00CF804462946E8
:1012D000304600F045FA142001F074FB204670BD42
:1012E000000C014006490A889207FCD5044A121DE9
:1012F00010800888C007FCD01088C0B2704700007A
:101300000838004070B50C460546FFF7CDFF40EAAF
:1013100004012846BDE8704000F074B970B5144669
:101320000D460646FFF7C0FF284040EA040130465C
:10133000BDE8704000F066B92DE9F04F99B00F4656
:101340000021229C1E4615468DF850108DF8541031
:10135000062837D2AFB3A5B39EB394B300F02AF9F1
:10136000052001F019FBDFF818924FF48078414610
:10137000484600F0F5F9012001F00EFB41464846D1
:1013800000F0ECF9052001F007FB4120FFF76EFBB0
:101390000A2001F001FB15AB14AA294618A8FFF793
:1013A000ABF9A0B14220FFF761FB0A2001F0F4FA8B
:1013B00016A911A8FFF738FE01004FF0020833D03C
:1013C00036E0FFE76FF07B0019B0BDE8F08F012039
:1013D00038709DF8500030709DF85000042805D0FA
:1013E00014A92046FFF73EFF40B2EDE79DF85400F8
:1013F000082803D19DF86000042804D0214603206A
:10140000FFF7CBFDE0E75F48FEF7C0FF0028DBD128
:101410002A4600216020FEF7DCFF0028D4D12146B7
:101420000120FFF737FDCFE79DF858000C281FD0AB
:101430004620FFF71BFB0A2001F0AEFA52A04FF046
:10144000070900681790BDF85C00ADF804009DF82E
:101450005E008DF800904FF0030A8DF80600ADF89D
:1014600002A06846FFF75FFA4FF0080BE8B352E0BE
:1014700087F8008045A001F027F800270DF1440807
:1014800006E018F8071044A001F01EF87F1CFFB218
:101490009DF858008742F4D341A001F015F8284682
:1014A000FFF760FC00288FD10A21317001463DA072
:1014B00001F00AF8002638A0A95D01F005F8761CB5
:1014C000F6B20A2EF7D336A000F0FEFF11A908F1FC
:1014D0000100FFF7FCF9002887D19DF84410217026
:1014E000DDF84910C4F801106EE7FFE7BDF802000F
:1014F000102810D387F800A0DDF805002860DDF87B
:101500000900686086F800B0DDF80D002060DDF8A5
:10151000110060602FE05620FFF7A8FA0A2001F0C2
:101520003BFA23A000681790BDF85C008DF800908E
:10153000ADF80400ADF802806846FFF7F4F9E0B9B1
:10154000BDF80200102818D3042038700020694626
:10155000BDF80220C0EBD2020A44D2782A54401CC3
:10156000C0B20828F4D386F800B09DF804002070BB
:101570009DF805006070002026E74FF0FF3023E75C
:10158000000801402E0000200600FF004154514297
:101590003A2025645F2000002530325820000000EA
:1015A0000D0A0000554944423A2025645F2000009E
:1015B0000101000070B5044606281BD20E4E0F4DE7
:1015C000202116F82420284600F0CCF806EB8404ED
:1015D00002216278284600F0C5F8A2784FF4004155
:1015E000284600F0BFF8E278BDE8704008210448C2
:1015F00000F0B8B870BD00004E2A00080008014095
:10160000000C01402DE9F0410C4D0E4607464FF409
:1016100080542146284600F0A1F87806000EFFF716
:1016200061FE3046FFF75EFE2146284600F098F83E
:10163000BDE8F041142001F0C5B90000000C0140E4
:1016400010B58A0721F003040649120F21440F2325
:101650008C6893409C438C608B68904003438B6004
:1016600010BD000000000140F0B5CC78002204F06D
:101670000F03E40601D58C7823430C784FF00F0C50
:1016800014F0FF0F4FF0010E1BD005680E880EFA04
:1016900002F42640A64210D196000CFA06F725EA7D
:1016A000070703FA06F5CE783D43282E02D0482ED0
:1016B00002D002E0446100E00461521C082AE5D334
:1016C00005600A88FF2A1CD94468002202F1080636
:1016D0000EFA06F50E882E40AE420ED196000CFA98
:1016E00006F7BC4303FA06F7CE783C43282E00D118
:1016F0004561CE78482E00D10561521C082AE5D3F9
:101700004460F0BDF0B5144C002801DAE36900E054
:101710006368450D2E0185B2C0F30157B540C0F393
:101720000342032F05D0C6020AD503269640B343D1
:1017300007E023F07062636823F07063636002E087
:10174000AB4343F0706201B12A43002801DAE26141
:10175000F0BD6260F0BD00000000014041617047D3
:10176000016170470AB101617047416170470C28FF
:1017700013D2DFE800F012061208120A120C120E41
:10178000121000207047012070470220704703208C
:10179000704704207047052070476420704710B5DB
:1017A0000023002809D0002203E0845C521C23445B
:1017B00092B28A42F9D3D843C0B210BDFEE7FEE729
:1017C0007047000030B50F23C27801780125F2B1CF
:1017D000144A126801F1E02102F4E062C2F5E0620D
:1017E000120AC2F10404D3404278A24084781C401B
:1017F0001443220181F80024007800F01F018D407D
:101800004009800000F1E020C0F8005130BD01F037
:101810001F0085404809800000F1E020C0F8805199
:1018200030BD00000CED00E070470000044A0029C4
:10183000D16901D0014300E08143D16170470000CC
:1018400000100240044A0029916901D0014300E0E0
:1018500081439161704700000010024030B5204A7A
:101860005168204B11F00C0103D0042901D0082944
:1018700001D0036012E05168536801F470114FF019
:10188000020413F4803F04EB914102D053689B03A0
:1018900001D5154B00E0134B5943016051680F23EC
:1018A00003EA1111114B5C5C0168E140416054682E
:1018B000072505EA14241C5D21FA04F484605468A9
:1018C00005EAD4241B5DD940C1605268032303EAB2
:1018D0009232064B1B1F9A5CB1FBF2F1016130BDE5
:1018E0000010024000127A0000093D00450000206F
:1018F000FEB504461548C078FFF739FF642822D0AA
:1019000000F0C8FB052001F047F8114E4FF4807538
:1019100029463046FFF724FF012001F03DF8294613
:101920003046FFF71BFF052001F036F84120FFF796
:101930009DF80A2001F030F802AB01AA2146684662
:10194000FEF7DAFEFEBD4FF0FF30FEBD3400002092
:10195000000801402DE9F0439BB004463C2101A85A
:10196000FEF7F9FB2CA0E778D0E9001026790025D6
:10197000CDE913102C464FF00109A846042C01D2E2
:10198000394600E031464FEA440001D3A0F1080097
:10199000C0B209FA00F20A4222D016A800908DF8CF
:1019A00054801AAB10AA15A92046FFF7C5FC9DF874
:1019B0005400012814D113A805EB8503015D01A88B
:1019C00018449DF8402042709DF8412082709DF897
:1019D0004220C2709DF8432002716D1C4171EDB22E
:1019E000641CE4B2062CC9D30D488DF804503DB1F7
:1019F00005EB8501491CC9B201AB0022009103E04F
:101A000000230322CDF800800221007800F00CFBB7
:101A10001BB0BDE8F083000001030507090B0000BF
:101A2000340000201CB50648012101AB007800916C
:101A30008DF804000022112100F0F6FA1CBD000010
:101A40003400002000B589B0202207A101A8FEF7CC
:101A500069FB1D2000900C4801AB00221521007885
:101A600000F0E2FA09B000BD43553530302D313277
:101A7000414E542056312E323320323032342D3004
:101A8000372D31320000000034000020F0B5234E25
:101A900000258BB0377808290CD3C4780179D0F8A9
:101AA00005200892B0F80900ADF824000F2C01D8E9
:101AB000032905D90023052221213846009524E079
:101AC00001EB8400C7B205A8FFF712FF18B100238D
:101AD0000322009517E008A8FEF758FC18B1002370
:101AE000042200950FE0A006010E05AA6020FEF773
:101AF00070FC0028F3D101A93846FFF7CBF940B1BB
:101B00000023052200952121307800F08DFA0BB0DA
:101B1000F0BD102001AB00220090F4E7340000205B
:101B20002DE9F041244F02460026387892B007296B
:101B300007D3D578516810911189ADF844100F2D55
:101B400004D9002305222521009627E00DA8FFF7E0
:101B5000CFFE18B10023032200961DE010A8FEF767
:101B600015FC18B100230422009615E0A806010E0A
:101B70000DAA6020FEF72DFC0028F3D100240DF102
:101B8000040804EB850008EB0411C0B2FFF782F9EA
:101B900048B10023052200962521387800F044FA48
:101BA00012B0BDE8F081641CE4B2032CE9D330200C
:101BB00001AB00220090EFE7340000207CB5114D0E
:101BC0000026D9B1C4782046FFF7D1FD642815D08E
:101BD00000F060FAEC7042F2107200960099491C15
:101BE00000919142FADB01208DF8044001AB002204
:101BF00000900121287800F017FA7CBD0023012213
:101C00000096F6E73400002038B50A4D034600225E
:101C1000287841B1DC78002300921A46122100F0A6
:101C200003FA2C7038BD009200230122122100F02B
:101C3000FBF938BD340000202DE9F041264F002586
:101C400086B097F800C0064618290FD3F47830798B
:101C5000D6F805100491B6F80910ADF8141054EA3E
:101C6000000103D0032801D00F2C05D90023062240
:101C700022216046009527E000EB840000F0FF0879
:101C800001A8FFF735FE18B100230322009519E0E3
:101C900004A8FEF77BFB18B100230422009511E095
:101CA000A006010E01AA6020FEF793FB0028F3D1E5
:101CB00006F10B014046FFF71BF94FF000030095BA
:101CC00038B105222221387800F0AEF906B0BDE81F
:101CD000F0810022F6E70000340000202DE9F04FEB
:101CE00097B04FF0000B5C4ECDF804B0CDF808B0C3
:101CF000CDF80CB0CDF810B0CDF814B0CDF818B0C8
:101D0000CDF81CB0CDF820B0202596F800A00346F1
:101D100009AC0DF13509182906D2082610228DF8D4
:101D2000246001A9601C1DE0DF7893F80480D3F8DB
:101D300005001590B3F80900ADF85800102203F122
:101D40000B0101A8FEF7EEF957EA080004D0B8F13C
:101D5000030F01D00F2F12D908268DF8246010220E
:101D600001A9601CFEF7DEF9102205A94846FEF71E
:101D7000D9F9631C3246D1215046009566E008EB44
:101D8000870000F0FF0812A8FFF7B2FD08B1012795
:101D90000BE015A8FEF7FAFA30B9BF00F9B212AAA3
:101DA0006020FEF716FB80B102278DF82470102208
:101DB00001A9601CFEF7B6F9102205A94846FEF7F6
:101DC000B1F9631C3A4600953EE001A94046FFF791
:101DD0008FF808B10327E8E712A8FFF789FD08B1DB
:101DE0000427E2E715A8FEF7D1FA28B9F9B212AA3A
:101DF0006020FEF7EEFA08B10527D6E705A94046B0
:101E0000FFF748F808B10627CFE78DF824B0002087
:101E100001AA05A9135C0F5CBB4203D007208DF813
:101E2000240003E0401CC0B21028F3D3102201A903
:101E3000601CFEF777F9102205A94846FEF772F9F3
:101E40009DF824200095631CD121307800F0ECF837
:101E500017B0BDE8F08F0000340000202DE9F041FC
:101E6000DFF898800746002698F8000086B03929E8
:101E700009D3FD78D7F8061004917989ADF81410CC
:101E80000DB10F2D04D9002306222721009627E04B
:101E900001A8FFF72DFD18B10023032200961CE0D6
:101EA00004A8FEF773FA18B100230422009614E088
:101EB000A806010E01AA6020FEF78BFA0028F3D1D4
:101EC000002407EB041104EB8500C0B20C31FFF7CE
:101ED0000FF850B1002305220096272198F8000042
:101EE00000F0A2F806B0BDE8F081641CE4B2032C57
:101EF000E7D300231A460096EFE7000034000020E5
:101F000010B500F0EFF8BDE81040FEF7FBBA000096
:101F100038B50A46264C81780123A1700025121F8E
:101F2000637021292FD00CDC112921D004DC012978
:101F30001AD002290DD122E012291CD0152908D16E
:101F40000FE0222923D0252925D0272927D0D129E0
:101F500029D000950023FF22207800F065F86570F5
:101F600038BDFFF76FFDFAE7D1B2FFF727FEF6E7BE
:101F7000FFF758FDF3E7D1B2FFF746FEEFE7D1B226
:101F8000FFF7E8FCEBE7D1B2FFF780FDE7E7D1B25E
:101F9000FFF752FEE3E7D1B2FFF7C2FDDFE7D1B2B0
:101FA000FFF75CFFDBE7D1B2FFF798FED7E7000051
:101FB0003400002070B51A4C1A4B0025617929B104
:101FC00001290DD065712571A57126E0011F2571CC
:101FD0003B2922D81870A0710120207160711CE08B
:101FE0002279402A02D29854521C2271A179D0B28F
:101FF000884212D31918401E11F8016C81B20948A9
:10200000FFF7CDFB657125712946A571864204D184
:102010000448FFF77DFF012070BD002070BD000067
:1020200034000020DC000020F0B591B06F46169C13
:10203000651D8DF800508DF801008DF802108DF8A7
:1020400003205BB154B1372C08D8002004E0195CA0
:102050003A18401C1171C0B2A042F8D3211D384675
:10206000FFF79DFB3919EDB208710024084E08E016
:10207000395D304600F014FA30880006FCD5641C47
:10208000E4B2AC42F4D330884006FCD511B0F0BDC8
:102090000038014070B5044606281BD20E4E0F4D85
:1020A000202116F824202846FFF75CFB06EB840469
:1020B000022162782846FFF755FBA2784FF40041D1
:1020C0002846FFF74FFBE278BDE87040082104483E
:1020D000FFF748BB70BD00004E2A00080008014011
:1020E000000C014010B5074C0120FF222070062192
:1020F000E01DFEF729F8002060712071A07160706A
:10210000A07010BD340000200029018802D041F0E9
:10211000400101E021F040010180704730B50288A4
:102120004C8802F441530A88CD8822438C882C4382
:1021300022430C8922434C8922438C892243CC8937
:1021400022431A430280828B22F400628283098A2E
:10215000018230BD704700000CB500222648009275
:102160000192016841F4803101604FF4A06301687D
:1021700001F4003101910099491C0091019911B9B4
:1021800000999942F3D10168890333D50121019166
:102190001A490A6842F010020A600A6822F0030233
:1021A0000A600A6842F002020A60416841604168C0
:1021B0004160416841F480614160416821F47C11D3
:1021C0004160416841F4E8114160016841F080716B
:1021D000016001688901FCD5416821F0030141607B
:1021E000416841F0020141604168C1F38101022967
:1021F000FAD10CBD01920CBD00100240002002403B
:10220000704700000F4810B5016841F001010160FE
:1022100041680D4A1140416001680C4A114001605B
:10222000016821F480210160416821F4FE014160D0
:102230004FF41F018160FFF78FFF05494FF00060E9
:10224000086010BD001002400000FFF8FFFFF6FE1E
:1022500008ED00E030B587B0FFF7D4FF482000F06C
:1022600085FB012144F20500FFF7ECFA18208DF8F8
:1022700013004FF40070ADF810000320204C8DF8CF
:10228000120004A92046FFF7EFF904218DF813107E
:102290000902ADF8101004A92046FFF7E5F9002463
:1022A0004FF4E1300090ADF808400C20154DADF82A
:1022B0000440ADF80A00ADF80640ADF80C406946A0
:1022C000284600F093F825208DF814008DF815406D
:1022D00001218DF816108DF8171005A8FFF772FA76
:1022E000012240F22551284600F068F801212846D5
:1022F00000F03BF86021284600F02EF807B030BD12
:10230000000801400038014070B5104C40F22555DE
:102310002946204600F033F8002815D0204600F06A
:10232000BBF8C3B20A480178491C01F07F0241782A
:102330008A4203D0074906788B5502702946204609
:10234000BDE8704000F00BB870BD000000380140DF
:10235000000000205C000020C943018070470A0A89
:1023600001219140C943018070470029818902D031
:1023700041F4005101E021F400518181704770B5B2
:1023800001F01F0501260024C1F3421306FA05F2ED
:10239000012B0FD0022B0FD0838A4FEA1121008826
:1023A000134206FA01F600EA060001D000B101244A
:1023B000204670BD8389F0E7038AEEE710B5C1F3CC
:1023C000421301F01F040121A140012B07D0022B71
:1023D00007D01430002A026805D00A4304E00C300C
:1023E000F8E71030F6E78A43026010BD30B50446C6
:1023F000008A85B00D464CF6FF710840E98801431C
:102400002182A0894EF6F3110840A9882A89114338
:102410006A8902431143A181A08A4FF6FF41084017
:10242000A9890143A1826846FFF718FA1948844236
:1024300001D1039800E00298A189090400EBC001D2
:1024400001EB0010296801D5490000E08900B0FBCC
:10245000F1F06422B0FBF2F109010B096FF01805ED
:102460006B4300EB8300A3891D044FF0320306D5B4
:1024700003EBC000B0FBF2F000F0070005E003EB57
:102480000010B0FBF2F000F00F000843208105B00F
:1024900030BD0000003801408088C0F3080070475C
:1024A000C1F30801818070470A881346424082EADE
:1024B0000210C0B21A0A82EA002282EAC00282EA4C
:1024C000101008807047FEE70FB4054B10B503A944
:1024D000044A029800F018F810BC5DF814FB0000E4
:1024E000D72900085800002002E008C8121F08C1C0
:1024F000002AFAD170477047002001E001C1121F85
:10250000002AFBD1704700002DE9FF4F8DB00F4628
:102510000546002606E025280BD0DDE90F1290477E
:102520006D1C761C28780028F5D111B03046BDE826
:10253000F08F0024A246A1460122EC4900E00443AA
:1025400015F8013F203B02FA03F00842F7D1287842
:102550002A2810D06FF02F022878A0F13001092925
:1025600014D80AEB8A0102EB410144F0020400EBAB
:10257000010A6D1CF0E701CF5FEA000A03D544F4BD
:102580000054CAF1000A44F002046D1C28782E2879
:1025900017D115F8010F44F004042A280ED06FF06B
:1025A0002F022878A0F1300109290AD809EB890106
:1025B00002EB410100EB01096D1CF2E757F8049BA7
:1025C0006D1C28786C280FD006DC4C2817D06828A2
:1025D0000DD06A2814D104E0742810D07A280FD1C5
:1025E0000DE044F400140AE044F4801401E044F4E3
:1025F00040146978814202D104F580146D1C6D1C71
:102600002A786E2A1FD00CDC632A31D004DC002A21
:102610008BD0582A11D1A3E0642A68D0692A0CD142
:1026200065E0732A2ED004DC6F2A73D0702A04D19F
:102630009BE0752A6FD0782A6ED01046DDE90F1224
:102640009047761C50E1C4F30250022806D00328BC
:1026500009D0042801CF09D0066045E101CFF11768
:10266000C0E9006140E101CF06803DE106703BE139
:1026700017F8040B8DF8000000208DF80100EB46E0
:10268000012003E057F804BB4FF0FF3061074FF023
:10269000000102D40DE008F10101884649450FDA36
:1026A0008045F8DB1BF808100029F4D108E008F198
:1026B000010188468142FADB1BF808100029F6D197
:1026C000DDE90F23AAEB08008146214600F036F928
:1026D000304400EB080604E0DDE90F121BF8010BA3
:1026E0009047B8F10108F7D221464846F7E00A21A1
:1026F000C4F302534FF0000B0891022B04D001CF1A
:10270000C117032B09D00AE0FF1D27F00707F7E8E0
:10271000020108E032E01FE020E000B2C117042B04
:1027200001D140B2C117031E71F1000307DA4FF067
:10273000000CD0EB0C006CEB01012D2302E0230513
:1027400004D52B238DF82430012303E0E30701D0C7
:102750002023F7E7984658E00A2110E010210EE008
:1027600010204FF0000B08900CE010214FF0000BF0
:1027700044F004044FF00809089103E008214FF0E9
:10278000000B0891C4F30253022B04D001CF0021A7
:10279000032B06D006E0FF1D27F00707F7E802012C
:1027A00003E080B2042B00D1C0B24FF00008230731
:1027B0002BD5702A07D0DDF820C08CF0100C5CEA15
:1027C0000B0C05D00EE040238DF82430012308E0E7
:1027D00050EA010306D030238DF824308DF82520EF
:1027E00002239846DDF820C08CF0080C5CEA0B0C44
:1027F0000BD150EA010301D1630706D530238DF8D0
:1028000024304FF00108A9F10109582A04D038A258
:102810000B9208AA0A920BE03AA2F9E75B46089AE3
:10282000FDF7A4FC0B9B9B5C0A9A521E0A92137044
:1028300050EA0102F2D10A98ADEB000000F1200B42
:10284000600702D524F4803401E04FF00109D94536
:1028500002DDA9EB0B0000E0002000EB0B0141447E
:102860000890AAEB010AE00306D4DDE90F23214614
:10287000504600F063F806444FF0000908E009A94B
:1028800011F80900DDE90F12904709F10109761CE2
:10289000C145F4DBE0030CD5DDE90F2321465046AA
:1028A00000F04CF8064404E0DDE90F1230209047B8
:1028B000761C0899481E08900029F5DC08E00A9863
:1028C0000A990078491C0A91DDE90F129047761C9D
:1028D000BBF10001ABF1010BF1DC21465046DDE913
:1028E0000F2300F019F806446D1C1BE609280100AF
:1028F0003031323334353637383961626364656676
:102900000000000030313233343536373839414237
:1029100043444546000000002DE9F04104460025EF
:102920001E461746880404D405E039462020B047E7
:102930006D1C641EF9D52846BDE8F0812DE9F041F3
:10294000044600251E469046C80301D5302700E006
:102950002027880404D505E041463846B0476D1C61
:10296000641EF9D52846BDE8F08100004FF0E02153
:102970000A6922F004020A610649C00800EB40021D
:102980000870C2EBC0104FF6FF7202EAC000488028
:1029900070470000040000200949498848434FF06F
:1029A000E0214861086940F0010008610869C0033E
:1029B000FCD5086920F0010008610020886170479B
:1029C00004000020002103E000BF00BF00BF491C3D
:1029D0008142F9D3704738B504468DF80000694646
:1029E0000320ABBE204638BDFFF734FCFFF788FA62
:1029F00062B6084C084D08E06078285C6178491C94
:102A000001F07F016170FFF7D5FA20786178884284
:102A1000FBD0F1E7000000205C0000200100000076
:102A2000000000000100000000000000780000002D
:102A3000000000000000000001080000000000008D
:102A40000000000001000000000000000000010084
:102A50000000010001000100000100010000000170
:102A60000100000100010000882A00080000002089
:102A70005C000000E8240008E42A00085C00002054
:102A8000C4040000F824000800000000000000005A
:102A90000000000000000000000000000000000036
:102AA0000000000000000000000000000000000026
:102AB000FFFFFFFFFFFFFFFFFFFFFFFF0100000120
:102AC000000000FFFFFFFFFFFF02040608000000F8
:102AD00000010203040102030406070809000000C4
:042AE00000000000F2
:04000005080000ED02
:00000001FF
